:020000040000FA
:080000003234353435347D2B18
:04000800003400348C
:04000C0022008D3011
:100010009D0021007830990022008C0121003F30A2
:100020008C00230017308C00210001309D0021003E
:1000300020309E0021009B019C01210009309D0081
:1000400021009D1421009D182228003424000C1644
:1000500022001C309D0021007830990000308C0077
:1000600022008C0123008C01230082309B0006308B
:100070009C001E159F151E129E179D179E1600347C
:1000800023009E1C40282000111E40280034FF3011
:10009000AF000530B0002100AF0B4B28B00B4B2850
:1000A0000034230016309A004020472023005630A9
:1000B0009A004020472023006F309A0040204720BC
:1000C00023006C309A0040204720230074309A00AF
:1000D00040204720230073309A004020472023000F
:1000E0003D309A0040204720230020309A004020D5
:1000F00047200034820730343034303430343034E8
:1001000030343034303430343034303430343034CF
:1001100030343034303430343034303430343034BF
:1001200030343034303430343034303430343034AF
:10013000303430343034303430343034303430349F
:10014000303430343034303430343034303430348F
:10015000303430343034303430343034313431347D
:100160003134313431343134313431343134313467
:100170003134313431343134313431343134313457
:100180003134313431343134313431343134313447
:100190003134313431343134313431343134313437
:1001A0003134313431343134313431343134313427
:1001B0003134313431343134313431343134313417
:1001C00032343234323432343234323432343234FF
:1001D00032343234323432343234323432343234EF
:1001E00032343234323432343234323432343234DF
:1001F00032343234323432343234323432343234CF
:1002000032343234323432343234323432343234BE
:1002100032343234323432343234323432343234AE
:100220003234323432343334333433343334333499
:100230003334333433343334333433343334333486
:100240003334333433343334333433343334333476
:100250003334333433343334333433343334333466
:100260003334333433343334333433343334333456
:100270003334333433343334333433343334333446
:100280003334333433343334333433343434343434
:10029000343434343434343434343434343434341E
:1002A000343434343434343434343434343434340E
:1002B00034343434343434343434343434343434FE
:1002C00034343434343434343434343434343434EE
:1002D00034343434343434343434343434343434DE
:1002E00034343434343434343434343434343434CE
:1002F00035343534353482073034303430343034AA
:1003000030343134313431343134313432343234C4
:1003100032343234323433343334333433343334A8
:10032000343434343434343434343434353435348B
:100330003534353435343634363436343634363470
:100340003734373437343734373438343834383452
:100350003834383439343934393439343934303440
:100360003034303430343034313431343134313469
:10037000313432343234323432343234333433344C
:100380003334333433343434343434343434343430
:100390003534353435343534353436343634363412
:1003A00036343634373437343734373437343834F6
:1003B00038343834383438343934393439343934D9
:1003C0003934303430343034303430343034313403
:1003D00031343134313431343134323432343234F2
:1003E00032343334333433343334333434343434D4
:1003F00034343434343435343534353435343534B8
:100400003634363436343634363437343734373499
:10041000373437343834383438343834383439347D
:100420003934393439343934303430343034303488
:100430003034313431343134313431343234323493
:100440003234323432343334333433343334333477
:100450003434343434343434343435343534353459
:10046000353435343634363436343634363437343D
:100470003734373437343734373438343834383421
:10048000383438343934393439343934393430340F
:100490003034303430343034313431343134313438
:1004A000313432343234323432343234333433341B
:1004B00033343334333434343434343434343434FF
:1004C00035343534353435343534363436343634E1
:1004D00036343634373437343734373437343834C5
:1004E00038343834383438343934393439343934A8
:1004F00039343034303430348207303430343034AE
:1005000030343034303432343434363438343034B7
:10051000323434343634383430343234343436349B
:100520003834303431343334353437343934313489
:100530003334353437343934313433343534373473
:100540003934313433343534373439343134333465
:10055000353437343934313433343534373439344D
:100560003134333435343734393431343334353449
:100570003734393431343334343436343834303435
:10058000323434343634383430343234343436342B
:10059000383430343234343436343834303432341D
:1005A0003434363438343034323434343634383405
:1005B0003034323434343634383430343234343401
:1005C00036343834303432343434363437343934E1
:1005D00031343334353437343934313433343534D9
:1005E00037343934313433343534373439343134C1
:1005F00033343534373439343134333435343734B3
:1006000039343134333435343734393431343334A4
:10061000353437343934313433343534373438348D
:100620003034323434343634383430343234343490
:100630003634383430343234343436343834303478
:10064000323434343634383430343234343436346A
:10065000383430343234343436343834303432345C
:100660003434363438343034323434343634383444
:10067000303431343334353437343934313433343D
:10068000353437343934313433343534373439341C
:100690003134333435343734393431343334353418
:1006A0003734393431343334353437343934313400
:1006B00033343534373439343134333435343734F2
:1006C00039343134333434343634383430343234E9
:1006D00034343634383430343234343436343834D4
:1006E00030343234343436343834303432343434D0
:0A06F00036343834303432343434F8
:0606FA004720262023002A
:100700000C309A0047204720230011309A005120D6
:100710006400062021001C082100A40000308A008B
:1007200024087A202100AC0001308A0024087B21B3
:100730002100AD0002308A0024087C222100AE0096
:100740002620230087309A004020472021002C08D3
:1007500023009A004020472023002E309A0040209A
:10076000472021002D0823009A0040204720210027
:0C0770002E0823009A0040204720882B10
:020000040001F9
:02000E00E43FCD
:02001000FF3CB3
:00000001FF
